:1000000010C02AC029C028C027C026C01DC224C0D5
:1000100023C0D9C121C020C01FC01EC01DC01CC02C
:100020001BC011241FBECFE5D1E0DEBFCDBF10E065
:10003000A0E6B0E0ECEEF5E002C005900D92AE3720
:10004000B107D9F720E0AEE7B0E001C01D92AA38B1
:10005000B207E1F7C3D2C8C2D3CFCF93DF9300D0AA
:10006000CDB7DEB71A82198286E390E0FC01808169
:10007000882F90E081709927009721F481E090E02B
:100080009A83898389819A810F900F90DF91CF9114
:100090000895CF93DF9300D0CDB7DEB71A821982CF
:1000A00086E390E0FC018081882F90E0847099279E
:1000B000009721F481E090E09A83898389819A8175
:1000C0000F900F90DF91CF910895CF93DF9300D0E1
:1000D000CDB7DEB71A82198289E390E0FC018081F6
:1000E000882F90E088709927009721F481E090E0B4
:1000F0009A83898389819A810F900F90DF91CF91A4
:100100000895CF93DF9300D0CDB7DEB71A8219825E
:1001100086E390E0FC018081882F90E0827099272F
:10012000009721F481E090E09A83898389819A8104
:100130000F900F90DF91CF910895CF93DF93CDB7BC
:10014000DEB780918900882361F481E08093890083
:100150008BE390E02BE330E0F90120812160FC018A
:100160002083DF91CF910895CF93DF93CDB7DEB792
:10017000109289008BE390E02BE330E0F9012081BD
:100180002C7FFC012083DF91CF910895CF93DF93E3
:100190001F92CDB7DEB789838BE390E0FC018081AD
:1001A000882F90E02981222F30E0022E02C0959501
:1001B00087950A94E2F7817099270097B9F08BE34D
:1001C00090E02BE330E0F9012081622F2981422F5A
:1001D00050E021E030E0042E02C0220F331F0A94C9
:1001E000E2F720952623FC01208315C08BE390E0E5
:1001F0002BE330E0F9012081622F2981422F50E06A
:1002000021E030E0042E02C0220F331F0A94E2F7EF
:10021000262BFC0120830F90DF91CF910895CF937F
:10022000DF93CDB7DEB780918900882309F485DF9D
:1002300080E0ACDF81E0AADFDF91CF910895CF931A
:10024000DF93CDB7DEB782E590E0FC01108210921B
:100250007F0010927E0083E590E025E0FC01208382
:10026000DF91CF910895CF93DF93CDB7DEB783E5CC
:1002700090E0FC011082DF91CF910895CF93DF933E
:10028000CDB7DEB78BE390E02BE330E0F9012081BE
:100290002460FC012083D3DFDF91CF910895CF93B9
:1002A000DF93CDB7DEB78BE390E02BE330E0F901CD
:1002B00020812B7FFC012083D6DFDF91CF91089531
:1002C000CF93DF9300D0CDB7DEB79A8389831092A6
:1002D0007F0010927E0089819A81909383008093A1
:1002E0008200CCDF0F900F90DF91CF910895CF93D4
:1002F000DF93CDB7DEB78AE090E0E2DFDF91CF9108
:100300000895CF93DF93CDB7DEB782E090E0D8DFDA
:10031000DF91CF910895CF93DF93CDB7DEB7BFDFE5
:10032000DF91CF910895CF93DF9300D01F92CDB787
:10033000DEB79A8389836B838091840090918500D6
:100340008C33910588F18B81882349F020918600B8
:100350003091870089819A812817390739F089817E
:100360009A8190938700809386001B82209186005B
:10037000309187008B81882F90E0820F931FFC01C2
:100380008081813011F4BDDF18C02091860030914A
:1003900087008B81882F90E0820F931FFC01808162
:1003A000823059F4A4DF09C08091840090918500C7
:1003B000019690938500809384000F900F900F908A
:1003C000DF91CF9108951F920F9200905F000F92DE
:1003D00011242F933F934F935F936F937F938F934A
:1003E0009F93AF93BF93EF93FF93CF93DF93CDB7DB
:1003F000DEB7F89480917E0090917F0001969093F3
:100400007F0080937E0020917E0030917F0080915C
:100410008200909183008217930708F47CDF789420
:10042000DF91CF91FF91EF91BF91AF919F918F910C
:100430007F916F915F914F913F912F910F9000921B
:100440005F000F901F9018951F920F9200905F0011
:100450000F9211242F933F934F935F936F937F934A
:100460008F939F93AF93BF93EF93FF93CF93DF93BC
:10047000CDB7DEB7F89445DE009799F10ADE009714
:1004800031F423DE009719F0E8DD009751F18091F7
:1004900081008A3010F010928100C1DEDEDD00970D
:1004A00039F080918100682F80E690E03CDF13C036
:1004B000F0DD009739F080918100682F8AE690E0A6
:1004C00032DF09C002DE009731F480918100682F8D
:1004D00084E790E028DF809181008F5F8093810026
:1004E00007C042DE109281001092850010928400B5
:1004F0007894DF91CF91FF91EF91BF91AF919F9150
:100500008F917F916F915F914F913F912F910F90BC
:1005100000925F000F901F901895CF93DF93CDB797
:10052000DEB7F8948AE390E027E0FC01208387E3BC
:1005300090E0FC0110821092890010927F001092CE
:100540007E0082E090E0909383008093820086E5B5
:1005500090E023ECFC01208382E590E0FC01108216
:1005600080E590E022E0FC01208383E590E0FC013F
:10057000108283E490E0FC01108289E590E022E0A3
:10058000FC0120831092810010928500109284005B
:100590008AE490E024E83EE1FC01318320838CE48E
:1005A00090E0FC01118210828FE490E0FC01108247
:1005B0008EE490E02DE0FC01208382E490E0FC01D9
:1005C000108283E490E0FC0110828CE290E022E053
:1005D000FC0120837894DF91CF910895CF93DF932E
:0C05E000CDB7DEB79ADFFFCFF894FFCF55
:1005EC0001010101010101010101020102000000F0
:0E05FC000000000002010101000000000000EC
:00000001FF
