:1000000010C02AC029C028C027C026C0F4C124C0FF
:1000100023C0B1C121C020C01FC01EC01DC01CC054
:100020001BC011241FBECFE5D1E0DEBFCDBF10E065
:10003000A0E6B0E0ECE1F6E002C005900D92A63734
:10004000B107D9F720E0A6E7B0E001C01D92A238C1
:10005000B207E1F7D2D2E0C2D3CFCF93DF9300D083
:10006000CDB7DEB71A82198286E390E0FC01808169
:10007000882F90E081709927009721F481E090E02B
:100080009A83898389819A810F900F90DF91CF9114
:100090000895CF93DF9300D0CDB7DEB71A821982CF
:1000A00086E390E0FC018081882F90E0847099279E
:1000B000009721F481E090E09A83898389819A8175
:1000C0000F900F90DF91CF910895CF93DF9300D0E1
:1000D000CDB7DEB71A82198289E390E0FC018081F6
:1000E000882F90E088709927009721F481E090E0B4
:1000F0009A83898389819A810F900F90DF91CF91A4
:100100000895CF93DF9300D0CDB7DEB71A8219825E
:1001100086E390E0FC018081882F90E0827099272F
:10012000009721F481E090E09A83898389819A8104
:100130000F900F90DF91CF910895CF93DF93CDB7BC
:10014000DEB781E0809381008BE390E02BE330E029
:10015000F90120812160FC012083DF91CF91089576
:10016000CF93DF93CDB7DEB7109281008BE390E0A1
:100170002BE330E0F90120812C7FFC012083DF910B
:10018000CF910895CF93DF931F92CDB7DEB78983C8
:100190008BE390E0FC018081882F90E02981222F61
:1001A00030E0022E02C0959587950A94E2F781709F
:1001B00099270097B9F08BE390E02BE330E0F90149
:1001C0002081622F2981422F50E021E030E0042E6F
:1001D00002C0220F331F0A94E2F720952623FC0168
:1001E000208315C08BE390E02BE330E0F901208100
:1001F000622F2981422F50E021E030E0042E02C01E
:10020000220F331F0A94E2F7262BFC0120830F9064
:10021000DF91CF910895CF93DF93CDB7DEB7809173
:100220008100882309F489DF80E0ACDF81E0AADF68
:10023000DF91CF910895CF93DF93CDB7DEB782E5FD
:1002400090E0FC01108210927A0083E590E025E0B6
:10025000FC012083DF91CF910895CF93DF93CDB739
:10026000DEB783E590E0FC011082DF91CF91089525
:10027000CF93DF93CDB7DEB78BE390E02BE330E095
:10028000F90120812460FC012083D5DFDF91CF912B
:100290000895CF93DF93CDB7DEB78BE390E02BE3E8
:1002A00030E0F90120812B7FFC012083D6DFDF9134
:1002B000CF910895CF93DF93CDB7DEB7EADFDF911B
:1002C000CF910895CF93DF931F92CDB7DEB7909172
:1002D000800080917C00981768F520917D00309116
:1002E0007E0080918000882F90E0820F931FFC0198
:1002F00080818983809180008F5F809380008981D5
:100300008E3229F482E080937F00B2DF0FC08981B2
:100310008D3229F488E080937F00AADF07C08981AD
:10032000803221F482E080937F0085DF10927A0092
:1003300082DF02C0AEDF91DF0F90DF91CF91089591
:10034000CF93DF9300D0CDB7DEB79A838983A1DF47
:1003500089819A8190937E0080937D001092800025
:1003600089819A8150D180937C00ACDF0F900F90EF
:10037000DF91CF9108951F920F9200905F000F922E
:1003800011242F933F934F935F936F937F938F939A
:100390009F93AF93BF93EF93FF93CF93DF93CDB72B
:1003A000DEB7F89490917A0080917F00981730F42E
:1003B00080917A008F5F80937A0008C07BDF9091F4
:1003C000800080917C00981708F47CDF7894DF919E
:1003D000CF91FF91EF91BF91AF919F918F917F91BD
:1003E0006F915F914F913F912F910F9000925F001D
:1003F0000F901F9018951F920F9200905F000F9220
:1004000011242F933F934F935F936F937F938F9319
:100410009F93AF93BF93EF93FF93CF93DF93CDB7AA
:10042000DEB7F89480917B00843008F469C069DEFF
:10043000009709F45BC02DDE009739F446DE009783
:1004400021F00BDE009709F451C080917600909165
:100450007700A0917800B09179000196A11DB11D9F
:100460008093760090937700A0937800B093790002
:10047000D2DEF3DD009789F08091760090917700CD
:10048000A0917800B09179008D339105A105B10557
:1004900060F180E690E054DF33C0FBDD009789F027
:1004A0008091760090917700A0917800B0917900CA
:1004B00089379105A105B105C0F088E690E040DFDD
:1004C0001FC003DE009789F4809176009091770039
:1004D000A0917800B091790089379105A105B10507
:1004E00020F08EE690E02CDF0BC00AC039DED1DEB2
:1004F0001092760010927700109278001092790096
:1005000080917B008F5F80937B007894DF91CF9107
:10051000FF91EF91BF91AF919F918F917F916F91DB
:100520005F914F913F912F910F9000925F000F903C
:100530001F901895CF93DF93CDB7DEB7F8948AE379
:1005400090E027E0FC01208387E390E0FC0110822B
:100550001092810010927A0010927F001092800019
:1005600010927C0010927600109277001092780022
:100570001092790086E590E023ECFC01208382E56F
:1005800090E0FC01108280E590E022E0FC012083F5
:1005900083E590E0FC01108283E490E0FC0110828E
:1005A00089E590E022E0FC0120838AE490E024E8E1
:1005B0003EE1FC01318320838CE490E0FC01118258
:1005C00010828FE490E0FC0110828EE490E02DE038
:1005D000FC01208382E490E0FC01108283E490E03F
:1005E000FC0110828CE290E022E0FC01208310925A
:1005F0007B007894DF91CF910895CF93DF93CDB7AF
:10060000DEB798DFFFCFFC0101900020E9F780956D
:0C06100090958E0F9F1F0895F894FFCF67
:10061C002D202E202E202E002D202E202D002E20A1
:06062C002D202E202E00FF
:00000001FF
