:1000000010C02AC029C028C027C026C00CC224C0E6
:1000100023C0C8C121C020C01FC01EC01DC01CC03D
:100020001BC011241FBECFE5D1E0DEBFCDBF10E065
:10003000A0E6B0E0EAEBF5E002C005900D92AE3725
:10004000B107D9F720E0AEE7B0E001C01D92A738B4
:10005000B207E1F7AAD2AFC2D3CFCF93DF9300D0DC
:10006000CDB7DEB71A82198286E390E0FC01808169
:10007000882F90E081709927009721F481E090E02B
:100080009A83898389819A810F900F90DF91CF9114
:100090000895CF93DF9300D0CDB7DEB71A821982CF
:1000A00086E390E0FC018081882F90E0847099279E
:1000B000009721F481E090E09A83898389819A8175
:1000C0000F900F90DF91CF910895CF93DF9300D0E1
:1000D000CDB7DEB71A82198289E390E0FC018081F6
:1000E000882F90E088709927009721F481E090E0B4
:1000F0009A83898389819A810F900F90DF91CF91A4
:100100000895CF93DF9300D0CDB7DEB71A8219825E
:1001100086E390E0FC018081882F90E0827099272F
:10012000009721F481E090E09A83898389819A8104
:100130000F900F90DF91CF910895CF93DF93CDB7BC
:10014000DEB780918600882361F481E08093860089
:100150008BE390E02BE330E0F90120812160FC018A
:100160002083DF91CF910895CF93DF93CDB7DEB792
:10017000109286008BE390E02BE330E0F9012081C0
:100180002C7FFC012083DF91CF910895CF93DF93E3
:100190001F92CDB7DEB789838BE390E0FC018081AD
:1001A000882F90E02981222F30E0022E02C0959501
:1001B00087950A94E2F7817099270097B9F08BE34D
:1001C00090E02BE330E0F9012081622F2981422F5A
:1001D00050E021E030E0042E02C0220F331F0A94C9
:1001E000E2F720952623FC01208315C08BE390E0E5
:1001F0002BE330E0F9012081622F2981422F50E06A
:1002000021E030E0042E02C0220F331F0A94E2F7EF
:10021000262BFC0120830F90DF91CF910895CF937F
:10022000DF93CDB7DEB780918600882309F485DFA0
:1002300080E0ACDF81E0AADFDF91CF910895CF931A
:10024000DF93CDB7DEB782E590E0FC01108210921B
:100250007F0010927E0083E590E025E0FC01208382
:10026000DF91CF910895CF93DF93CDB7DEB783E5CC
:1002700090E0FC011082DF91CF910895CF93DF933E
:10028000CDB7DEB78BE390E02BE330E0F9012081BE
:100290002460FC012083D3DFDF91CF910895CF93B9
:1002A000DF93CDB7DEB78BE390E02BE330E0F901CD
:1002B00020812B7FFC012083D6DFDF91CF91089531
:1002C000CF93DF9300D0CDB7DEB79A8389831092A6
:1002D0007F0010927E0089819A81909383008093A1
:1002E0008200CCDF0F900F90DF91CF910895CF93D4
:1002F000DF93CDB7DEB78AE090E0E2DFDF91CF9108
:100300000895CF93DF93CDB7DEB782E090E0D8DFDA
:10031000DF91CF910895CF93DF93CDB7DEB7BFDFE5
:10032000DF91CF910895CF93DF9300D01F92CDB787
:10033000DEB79A8389836B838B81882349F0209170
:1003400084003091850089819A812817390739F016
:1003500089819A8190938500809384001B822091EB
:100360008400309185008B81882F90E0820F931F4D
:10037000FC018081813011F4C4DF0EC02091840023
:10038000309185008B81882F90E0820F931FFC01B4
:100390008081823009F4ABDF0F900F900F90DF91D6
:1003A000CF9108951F920F9200905F000F92112439
:1003B0002F933F934F935F936F937F938F939F936D
:1003C000AF93BF93EF93FF93CF93DF93CDB7DEB798
:1003D000F89480917E0090917F00019690937F0029
:1003E00080937E0020917E0030917F00809182007A
:1003F000909183008217930708F48DDF7894DF9142
:10040000CF91FF91EF91BF91AF919F918F917F918C
:100410006F915F914F913F912F910F9000925F00EC
:100420000F901F9018951F920F9200905F000F92EF
:1004300011242F933F934F935F936F937F938F93E9
:100440009F93AF93BF93EF93FF93CF93DF93CDB77A
:10045000DEB7F89456DE009799F11BDE009731F471
:1004600034DE009719F0F9DD009751F18091810099
:100470008A3010F010928100D2DEEFDD009739F063
:1004800080918100682F80E690E04DDF13C001DE8F
:10049000009739F080918100682F8AE690E043DF71
:1004A00009C013DE009731F480918100682F84E742
:1004B00090E039DF809181008F5F8093810003C0DD
:1004C00053DE109281007894DF91CF91FF91EF91EC
:1004D000BF91AF919F918F917F916F915F914F915C
:1004E0003F912F910F9000925F000F901F901895F1
:1004F000CF93DF93CDB7DEB7F8948AE390E027E09F
:10050000FC01208387E390E0FC01108210928600BA
:1005100010927F0010927E0082E090E09093830022
:100520008093820086E590E023ECFC01208382E545
:1005300090E0FC01108280E590E022E0FC01208345
:1005400083E590E0FC01108283E490E0FC011082DE
:1005500089E590E022E0FC012083109281008AE48A
:1005600090E024E83EE1FC01318320838CE490E0BC
:10057000FC01118210828FE490E0FC0110828EE475
:1005800090E02DE0FC01208382E490E0FC011082E9
:1005900083E490E0FC0110828CE290E022E0FC0118
:1005A00020837894DF91CF910895CF93DF93CDB7D7
:0A05B000DEB79EDFFFCFF894FFCF07
:1005BA000101010101010101010102010200000022
:0E05CA0000000000020101010000000000001E
:00000001FF
