:100000000EC01DC01CC028C01AC019C018C017C01F
:1000100016C015C015C013C012C011C010C01124E5
:100020001FBECFE5D2E0DEBFCDBF20E0A0E6B0E04E
:1000300001C01D92A636B207E1F74AD04BC0E0CF0F
:100040001F920F920FB60F921124F89478940F908C
:100050000FBE0F901F9018951F920F920FB60F9220
:1000600011248F93F894809164008F5F843018F48A
:100070008093640002C0109264001092650078942E
:100080008F910F900FBE0F901F90189510926500E2
:10009000F89480E886BD81E086BD109261001092E0
:1000A000600084E190E090936300809362002FE809
:1000B00020BF94EF9EBD1CBC80E489BF1FBC109282
:1000C000640020BF9EBD1CBC89BF1FBC78940895EE
:0800D000DDDFFFCFF894FFCF44
:00000001FF
