:100000000EC01DC01CC026C01AC019C018C017C021
:1000100016C015C015C013C012C011C010C01124E5
:100020001FBECFE5D2E0DEBFCDBF20E0A0E6B0E04E
:1000300001C01D92A436B207E1F72FD030C0E0CF47
:100040001F920F920FB60F9211240F900FBE0F90B8
:100050001F9018951F920F920FB60F9211240F90B8
:100060000FBE0F901F901895F89480E886BD81E030
:1000700086BD109261001092600084E190E0909340
:100080006300809362008FE880BF84EF8EBD1CBC4C
:1000900080E489BF1FBC78940895E6DFFFCFF89411
:0200A000FFCF90
:00000001FF
