:1000000010C02AC029C028C027C026C0EAC124C009
:1000100023C0A7C121C020C01FC01EC01DC01CC05E
:100020001BC011241FBECFE5D1E0DEBFCDBF10E065
:10003000A0E6B0E0E6EDF5E002C005900D92A6372F
:10004000B107D9F720E0A6E7B0E001C01D92AF37B5
:10005000B207E1F7AFD2BDC2D3CFCF93DF9300D0C9
:10006000CDB7DEB71A82198286E390E0FC01808169
:10007000882F90E081709927009721F481E090E02B
:100080009A83898389819A810F900F90DF91CF9114
:100090000895CF93DF9300D0CDB7DEB71A821982CF
:1000A00086E390E0FC01808189819A810F900F9016
:1000B000DF91CF910895CF93DF9300D0CDB7DEB716
:1000C0001A82198289E390E0FC018081882F90E0F8
:1000D00088709927009721F481E090E09A838983C2
:1000E00089819A810F900F90DF91CF910895CF93DE
:1000F000DF9300D0CDB7DEB71A82198286E390E095
:10010000FC018081882F90E082709927009721F46C
:1001100081E090E09A83898389819A810F900F9082
:10012000DF91CF910895CF93DF93CDB7DEB781E014
:1001300080937E008BE390E02BE330E0F901208197
:100140002160FC012083DF91CF910895CF93DF934D
:10015000CDB7DEB710927E008BE390E02BE330E06A
:10016000F90120812C7FFC012083DF91CF9108953C
:10017000CF93DF931F92CDB7DEB789838BE390E0F7
:10018000FC018081882F90E02981222F30E0022E0F
:1001900002C0959587950A94E2F781709927009798
:1001A000B9F08BE390E02BE330E0F9012081622F7E
:1001B0002981422F50E021E030E0042E02C0220FBE
:1001C000331F0A94E2F720952623FC01208315C0F3
:1001D0008BE390E02BE330E0F9012081622F29814D
:1001E000422F50E021E030E0042E02C0220F331FE6
:1001F0000A94E2F7262BFC0120830F90DF91CF9128
:100200000895CF93DF93CDB7DEB780917E0088232A
:1002100009F489DF80E0ACDF81E0AADFDF91CF91D4
:100220000895CF93DF93CDB7DEB782E590E0FC0170
:1002300010821092770083E590E025E0FC01208396
:10024000DF91CF910895CF93DF93CDB7DEB783E5EC
:1002500090E0FC011082DF91CF910895CF93DF935E
:10026000CDB7DEB78BE390E02BE330E0F9012081DE
:100270002460FC012083D5DFDF91CF910895CF93D7
:10028000DF93CDB7DEB78BE390E02BE330E0F901ED
:1002900020812B7FFC012083D6DFDF91CF91089551
:1002A000CF93DF93CDB7DEB7EADFDF91CF9108952B
:1002B000CF93DF931F92CDB7DEB790917D008091F1
:1002C0007900981768F520917A0030917B00809131
:1002D0007D00882F90E0820F931FFC01808189832D
:1002E00080917D008F5F80937D0089818E3229F41B
:1002F00082E080937C00B2DF0FC089818D3229F4C7
:1003000088E080937C00AADF07C08981803221F4D5
:1003100082E080937C0085DF1092770082DF02C04C
:10032000AEDF91DF0F90DF91CF910895CF93DF93F0
:1003300000D0CDB7DEB79A838983A1DF89819A8106
:1003400090937B0080937A0010927D0089819A813E
:1003500037D180937900ACDF0F900F90DF91CF9170
:1003600008951F920F9200905F000F9211242F9317
:100370003F934F935F936F937F938F939F93AF932D
:10038000BF93EF93FF93CF93DF93CDB7DEB7F8948E
:100390009091770080917C00981730F480917700DD
:1003A0008F5F8093770008C07BDF90917D00809104
:1003B0007900981708F47CDF7894DF91CF91FF9152
:1003C000EF91BF91AF919F918F917F916F915F91CD
:1003D0004F913F912F910F9000925F000F901F90CF
:1003E00018951F920F9200905F000F9211242F9387
:1003F0003F934F935F936F937F938F939F93AF93AD
:10040000BF93EF93FF93CF93DF93CDB7DEB7F8940D
:1004100080917800843008F456C069DE009709F4B2
:100420004EC037DE009739F446DE009721F015DE26
:10043000009709F444C0809176008B3F28F48091A6
:1004400076008F5F80937600DCDE07DE009781F018
:10045000809176008D3390F180917600882F90E026
:1004600083709927009751F580E690E05FDF2BC0FD
:1004700010DE009781F0809176008937F8F0809146
:100480007600882F90E0837099270097B9F488E66A
:1004900090E04CDF18C00FDE009781F48091760069
:1004A000893760F080917600882F90E083709927DB
:1004B000009721F48EE690E039DF05C004C046DEE7
:1004C000DEDE10927600809178008F5F8093780056
:1004D0007894DF91CF91FF91EF91BF91AF919F9170
:1004E0008F917F916F915F914F913F912F910F90DD
:1004F00000925F000F901F901895CF93DF93CDB7B8
:10050000DEB7F8948AE390E027E0FC01208387E3DC
:1005100090E0FC01108210927E0010927700109201
:100520007C0010927D00109279001092760086E592
:1005300090E023ECFC01208382E590E0FC01108236
:1005400080E590E022E0FC01208383E590E0FC015F
:10055000108283E490E0FC01108289E590E022E0C3
:10056000FC0120838AE490E024E83EE1FC01318331
:1005700020838CE490E0FC01118210828FE490E0F3
:10058000FC0110828EE490E02DE0FC01208382E4E7
:1005900090E0FC01108283E490E0FC0110828CE288
:1005A00090E022E0FC012083109278007894DF91A3
:1005B000CF910895CF93DF93CDB7DEB79EDFFFCF06
:1005C000FC0101900020E9F7809590958E0F9F1F08
:0605D0000895F894FFCF2E
:1005D6002D202E202E202E002D202E202D002E20E8
:0605E6002D202E202E0046
:00000001FF
