:1000000010C02AC029C028C027C026C0F2C124C001
:1000100023C0AEC121C020C01FC01EC01DC01CC057
:100020001BC011241FBECFE5D1E0DEBFCDBF10E065
:10003000A0E6B0E0E4E6F5E002C005900D92AE3730
:10004000B107D9F720E0AEE7B0E001C01D92A838B3
:10005000B207E1F77FD284C2D3CFCF93DF9300D032
:10006000CDB7DEB71A82198286E390E0FC01808169
:10007000882F90E081709927009721F481E090E02B
:100080009A83898389819A810F900F90DF91CF9114
:100090000895CF93DF9300D0CDB7DEB71A821982CF
:1000A00086E390E0FC018081882F90E0847099279E
:1000B000009721F481E090E09A83898389819A8175
:1000C0000F900F90DF91CF910895CF93DF9300D0E1
:1000D000CDB7DEB71A82198289E390E0FC018081F6
:1000E000882F90E088709927009721F481E090E0B4
:1000F0009A83898389819A810F900F90DF91CF91A4
:100100000895CF93DF9300D0CDB7DEB71A8219825E
:1001100086E390E0FC018081882F90E0827099272F
:10012000009721F481E090E09A83898389819A8104
:100130000F900F90DF91CF910895CF93DF93CDB7BC
:10014000DEB780918700882361F481E08093870087
:100150008BE390E02BE330E0F90120812160FC018A
:100160002083DF91CF910895CF93DF93CDB7DEB792
:10017000109287008BE390E02BE330E0F9012081BF
:100180002C7FFC012083DF91CF910895CF93DF93E3
:100190001F92CDB7DEB789838BE390E0FC018081AD
:1001A000882F90E02981222F30E0022E02C0959501
:1001B00087950A94E2F7817099270097B9F08BE34D
:1001C00090E02BE330E0F9012081622F2981422F5A
:1001D00050E021E030E0042E02C0220F331F0A94C9
:1001E000E2F720952623FC01208315C08BE390E0E5
:1001F0002BE330E0F9012081622F2981422F50E06A
:1002000021E030E0042E02C0220F331F0A94E2F7EF
:10021000262BFC0120830F90DF91CF910895CF937F
:10022000DF93CDB7DEB780918700882309F485DF9F
:1002300080E0ACDF81E0AADFDF91CF910895CF931A
:10024000DF93CDB7DEB782E590E0FC01108210921B
:10025000850083E590E025E0FC012083DF91CF91CC
:100260000895CF93DF93CDB7DEB783E590E0FC012F
:100270001082DF91CF910895CF93DF93CDB7DEB792
:100280008BE390E02BE330E0F90120812460FC0156
:100290002083D5DFDF91CF910895CF93DF93CDB742
:1002A000DEB78BE390E02BE330E0F90120812B7F78
:1002B000FC012083D6DFDF91CF910895CF93DF93A8
:1002C000CDB7DEB7EADFDF91CF910895CF93DF930B
:1002D0001F92CDB7DEB7909185008091810098176D
:1002E00060F5209182003091830080918500882FF5
:1002F00090E0820F931FFC018081898389818E3277
:1003000029F482E080938400B7DF0EC089818032B7
:1003100029F48AE080938400AFDF06C089818032AF
:1003200019F482E080938400809185008F5F809330
:10033000850010927E0083DF02C0AFDF92DF0F9056
:10034000DF91CF910895CF93DF9300D0CDB7DEB783
:100350009A83898389819A81909383008093820014
:1003600010928500B3DF0F900F90DF91CF91089529
:100370001F920F9200905F000F9211242F933F93D2
:100380004F935F936F937F938F939F93AF93BF939D
:10039000EF93FF93CF93DF93CDB7DEB7F8949091AF
:1003A0007E0080918400981730F480917E008F5FEA
:1003B00080937E0002C082DF54DF9091850080919F
:1003C0008100981708F482DF7894DF91CF91FF9134
:1003D000EF91BF91AF919F918F917F916F915F91BD
:1003E0004F913F912F910F9000925F000F901F90BF
:1003F00018951F920F9200905F000F9211242F9377
:100400003F934F935F936F937F938F939F93AF939C
:10041000BF93EF93FF93CF93DF93CDB7DEB7F894FD
:1004200080918000823020F16CDE0097F9F031DE9F
:10043000009731F44ADE009719F00FDE0097B1F013
:10044000EEDE0BDE009721F080E690E07CDF0DC051
:1004500020DE009721F080E790E075DF06C035DEF2
:10046000009719F486E790E06EDF02C07DDE15DFAD
:10047000809180008F5F809380007894DF91CF918E
:10048000FF91EF91BF91AF919F918F917F916F916C
:100490005F914F913F912F910F9000925F000F90CD
:1004A0001F901895CF93DF93CDB7DEB7F8948AE30A
:1004B00090E027E0FC01208387E390E0FC011082BC
:1004C000109287001092850082E08093810086E57B
:1004D00090E023ECFC01208382E590E0FC01108297
:1004E00080E590E022E0FC01208383E590E0FC01C0
:1004F000108283E490E0FC01108289E590E022E024
:10050000FC0120838AE490E024E83EE1FC01318391
:1005100020838CE490E0FC01118210828FE490E053
:10052000FC0110828EE490E02DE0FC01208382E447
:1005300090E0FC01108283E490E0FC0110828CE2E8
:1005400090E022E0FC012083109280007894DF91FB
:10055000CF910895CF93DF93CDB7DEB7A3DFFFCF61
:04056000F894FFCF3D
:100564002E202E202E202E202E202E202E202E0037
:0E0574002D202E202D002D202E202E202E009A
:00000001FF
