:1000000010C02AC002C228C027C026C030C224C0E7
:1000100023C0BBC121C020C01FC01EC01DC01CC04A
:100020001BC011241FBECFE5D1E0DEBFCDBF10E065
:10003000A0E6B0E0E8EDF6E002C005900D92A6372C
:10004000B107D9F720E0A6E7B0E001C01D92A338C0
:10005000B207E1F730D33EC3D3CFCF93DF9300D0C5
:10006000CDB7DEB71A82198286E390E0FC01808169
:10007000882F90E081709927009721F481E090E02B
:100080009A83898389819A810F900F90DF91CF9114
:100090000895CF93DF9300D0CDB7DEB71A821982CF
:1000A00086E390E0FC018081882F90E0847099279E
:1000B000009721F081E090E09A83898389819A8179
:1000C0000F900F90DF91CF910895CF93DF9300D0E1
:1000D000CDB7DEB71A82198289E390E0FC018081F6
:1000E000882F90E088709927009721F481E090E0B4
:1000F0009A83898389819A810F900F90DF91CF91A4
:100100000895CF93DF9300D0CDB7DEB71A8219825E
:1001100086E390E0FC018081882F90E0827099272F
:10012000009721F481E090E09A83898389819A8104
:100130000F900F90DF91CF910895CF93DF93CDB7BC
:10014000DEB781E0809382008BE390E02BE330E028
:10015000F90120812160FC012083DF91CF91089576
:10016000CF93DF93CDB7DEB7109282008BE390E0A0
:100170002BE330E0F90120812C7FFC012083DF910B
:10018000CF910895CF93DF931F92CDB7DEB78983C8
:100190008BE390E0FC018081882F90E02981222F61
:1001A00030E0022E02C0959587950A94E2F781709F
:1001B00099270097B9F08BE390E02BE330E0F90149
:1001C0002081622F2981422F50E021E030E0042E6F
:1001D00002C0220F331F0A94E2F720952623FC0168
:1001E000208315C08BE390E02BE330E0F901208100
:1001F000622F2981422F50E021E030E0042E02C01E
:10020000220F331F0A94E2F7262BFC0120830F9064
:10021000DF91CF910895CF93DF93CDB7DEB7809173
:100220008200882309F489DF80E0ACDF81E0AADF67
:10023000DF91CF910895CF93DF93CDB7DEB782E5FD
:1002400090E0FC0110821092780083E590E025E0B8
:10025000FC012083DF91CF910895CF93DF93CDB739
:10026000DEB783E590E0FC011082DF91CF91089525
:10027000CF93DF93CDB7DEB78BE390E02BE330E095
:10028000F90120812460FC012083D5DFDF91CF912B
:100290000895CF93DF93CDB7DEB78BE390E02BE3E8
:1002A00030E0F90120812B7FFC012083D6DFDF9134
:1002B000CF910895CF93DF93CDB7DEB7EADFDF911B
:1002C000CF910895CF93DF931F92CDB7DEB7909172
:1002D000810080917D00981758F520917E00309123
:1002E0007F0080918100882F90E0820F931FFC0196
:1002F00080818983809181008F5F809381008981D3
:100300008E3229F482E080938000B2DF0FC08981B1
:100310008D3229F488E080938000AADF07C08981AC
:10032000803221F482E08093800085DF84DF02C088
:10033000B0DF93DF0F90DF91CF910895CF93DF93DC
:1003400000D0CDB7DEB79A838983209176003091B3
:1003500077008091790090917A008223932300970F
:1003600079F497DF89819A8190937F0080937E0052
:100370001092810089819A81A4D180937D00A2DFAF
:100380000F900F90DF91CF9108951F920F920090E0
:100390005F000F9211242F933F934F935F936F93BE
:1003A0007F938F939F93AF93BF93EF93FF93CF93DD
:1003B000DF93CDB7DEB7F8949091780080918000FC
:1003C000981730F4809178008F5F8093780008C090
:1003D00071DF9091810080917D00981708F472DFA1
:1003E0007894DF91CF91FF91EF91BF91AF919F9161
:1003F0008F917F916F915F914F913F912F910F90CE
:1004000000925F000F901F9018951F920F9200901E
:100410005F000F9211248F939F93CF93DF93CDB7FB
:10042000DEB7F89480917B008230B0F010927B00B0
:100430008091790090917A008730910539F48FE3AB
:1004400090E090937A008093790006C087E090E076
:1004500090937A00809379007894DF91CF919F9167
:100460008F910F9000925F000F901F9018951F9230
:100470000F9200905F000F9211242F933F934F93A0
:100480005F936F937F938F939F93AF93BF93EF93FC
:10049000FF93CF93DF93CDB7DEB7F89480917C00C4
:1004A000843008F465C080917B00823028F480910C
:1004B0007B008F5F80937B0024DE009709F43EC0B1
:1004C000E8DD009731F401DE009719F0C6DD0097F2
:1004D000A9F1809176009091770001969093770032
:1004E0008093760098DEB9DD009759F08091760010
:1004F000909177008D33910500F180E690E01EDF4A
:1005000037C0C7DD009759F0809176009091770051
:100510008937910590F088E690E010DF29C0D5DD9D
:10052000009759F480917600909177008937910572
:1005300020F08EE690E002DF1BC01AC0AADD009713
:1005400059F069DE80917600909177000196909342
:100550007700809376000CC003DE9BDE109277005C
:100560001092760087E090E090937A008093790073
:1005700080917C008F5F80937C007894DF91CF9195
:10058000FF91EF91BF91AF919F918F917F916F916B
:100590005F914F913F912F910F9000925F000F90CC
:1005A0001F901895CF93DF93CDB7DEB7F8948AE309
:1005B00090E027E0FC0120838BE390E02BE330E028
:1005C000F90120812068FC0120838BE590E02BE578
:1005D00030E0F90120812061FC01208382E390E07A
:1005E00022E330E0F90120812068FC01208387E3C9
:1005F00090E0FC01108282E080937B0087E090E035
:1006000090937A00809379001092820087E090E0C6
:1006100090937A0080937900109278001092800075
:100620001092810010927D00109277001092760057
:1006300086E590E023ECFC01208382E590E0FC015C
:10064000108280E590E022E0FC01208383E590E0C9
:10065000FC01108283E490E0FC01108289E590E0C7
:1006600022E0FC0120838AE490E024E83EE1FC01E2
:10067000318320838CE490E0FC01118210828FE4AE
:1006800090E0FC0110828EE490E02DE0FC012083DC
:1006900082E490E0FC01108283E490E0FC0110828F
:1006A0008CE290E022E0FC01208310927C007894A0
:1006B000DF91CF910895CF93DF93CDB7DEB772DF8F
:1006C000FFCFFC0101900020E9F7809590958E0FF7
:0806D0009F1F0895F894FFCF6D
:1006D8002D202E202E202E002D202E202D002E20E5
:0606E8002D202E202E0043
:00000001FF
