:1000000010C02AC029C028C027C026C09CC124C057
:1000100023C058C121C020C01FC01EC01DC01CC0AD
:100020001BC011241FBECFE5D1E0DEBFCDBF10E065
:10003000A0E6B0E0E8EEF4E002C005900D92A23731
:10004000B107D9F720E0A2E7B0E001C01D92AB37BD
:10005000B207E1F741D246C2D3CFCF93DF9300D0AE
:10006000CDB7DEB71A82198286E390E0FC01808169
:10007000882F90E081709927009721F481E090E02B
:100080009A83898389819A810F900F90DF91CF9114
:100090000895CF93DF9300D0CDB7DEB71A821982CF
:1000A00086E390E0FC018081882F90E0847099279E
:1000B000009721F481E090E09A83898389819A8175
:1000C0000F900F90DF91CF910895CF93DF9300D0E1
:1000D000CDB7DEB71A82198289E390E0FC018081F6
:1000E000882F90E088709927009721F481E090E0B4
:1000F0009A83898389819A810F900F90DF91CF91A4
:100100000895CF93DF9300D0CDB7DEB71A8219825E
:1001100086E390E0FC018081882F90E0827099272F
:10012000009721F481E090E09A83898389819A8104
:100130000F900F90DF91CF910895CF93DF93CDB7BC
:10014000DEB781E080937A00DF91CF910895CF935D
:10015000DF93CDB7DEB710927A00DF91CF9108958B
:10016000CF93DF93CDB7DEB780917A00882309F46F
:10017000E4DFDF91CF910895CF93DF93CDB7DEB762
:1001800082E590E0FC0110821092730010927200E0
:1001900083E590E025E0FC012083DF91CF91089575
:1001A000CF93DF93CDB7DEB783E590E0FC011082FB
:1001B000DF91CF910895CF93DF93CDB7DEB7DCDF2A
:1001C000DF91CF910895CF93DF93CDB7DEB7E8DF0E
:1001D000DF91CF910895CF93DF9300D0CDB7DEB7F5
:1001E0009A838983109273001092720089819A8198
:1001F0009093760080937500DEDF0F900F90DF9173
:10020000CF910895CF93DF93CDB7DEB784E190E02F
:10021000E2DFDF91CF910895CF93DF93CDB7DEB7C3
:1002200085E090E0D8DFDF91CF910895CF93DF9301
:10023000CDB7DEB7C8DFDF91CF910895CF93DF93BD
:1002400000D000D0CDB7DEB79A8389837C836B83DF
:100250008B819C81009731F489819A8190937800F9
:100260008093770040917700509178002B813C81FA
:10027000C901880F991F820F931F880F991F840F40
:10028000951FFC018081813011F4C6DF14C04091BC
:100290007700509178002B813C81C901880F991F0C
:1002A000820F931F880F991F840F951FFC01808177
:1002B000823009F4A7DF0F900F900F900F90DF911D
:1002C000CF9108951F920F9200905F000F9211241A
:1002D0002F933F934F935F936F937F938F939F934E
:1002E000AF93BF93EF93FF93CF93DF93CDB7DEB779
:1002F000F89480917200909173000196909373002E
:10030000809372002091720030917300809175008B
:10031000909176008217930708F488DF7894DF9134
:10032000CF91FF91EF91BF91AF919F918F917F916D
:100330006F915F914F913F912F910F9000925F00CD
:100340000F901F9018951F920F9200905F000F92D0
:1003500011242F933F934F935F936F937F938F93CA
:100360009F93AF93BF93EF93FF93CF93DF93CDB75B
:10037000DEB7F894809179008F5F80937900809147
:100380007900873010F010927900BBDE009789F178
:1003900080DE009731F499DE009719F05EDE009759
:1003A00041F1DEDE5ADE009751F080917900882F0E
:1003B00090E00197BC0180E690E040DF19C069DE63
:1003C000009751F080917900882F90E00197BC014F
:1003D00086E690E033DF0CC078DE009749F4809128
:1003E0007900882F90E00197BC018CE690E026DF31
:1003F00001C0ADDE7894DF91CF91FF91EF91BF9175
:10040000AF919F918F917F916F915F914F913F91AC
:100410002F910F9000925F000F901F901895CF932F
:10042000DF93CDB7DEB7F8948AE390E027E0FC01D4
:10043000208387E390E0FC01108210927A001092F2
:1004400073001092720085E090E0909376008093A4
:10045000750086E590E023ECFC01208382E590E0C6
:10046000FC01108280E590E022E0FC01208383E51E
:1004700090E0FC01108283E490E0FC01108289E5A9
:1004800090E022E0FC012083109279008AE490E061
:1004900024E83EE1FC01318320838CE490E0FC0100
:1004A000118210828FE490E0FC0110828EE490E0D3
:1004B0002DE0FC01208382E490E0FC01108283E4C3
:1004C00090E0FC0110828CE290E022E0FC012083AD
:1004D0007894DF91CF910895CF93DF93CDB7DEB7B6
:0804E0009EDFFFCFF894FFCF6F
:1004E80001010101010102010200000002010101F4
:0204F800000002
:00000001FF
