:1000000010C02AC029C028C027C026C0E8C024C00C
:1000100023C0B0C021C020C01FC01EC01DC01CC056
:100020001BC011241FBECFE5D1E0DEBFCDBF10E065
:10003000A0E6B0E0EAEEF2E002C005900D92AE3725
:10004000B107D9F720E0AEE7B0E001C01D92A838B3
:10005000B207E1F746D147C1D3CF86B3809581700F
:1000600090E0089586B38695869591E08927817002
:1000700090E0089589B386958695869591E08927C5
:10008000817090E0089586B3869591E0892781700C
:1000900090E0089580918700811104C081E08093F1
:1000A0008700D89A0895109287008BB38C7F8BBB02
:1000B00008952BB330E0082E02C0359527950A9499
:1000C000E2F79BB320FF0BC021E030E0082E01C017
:1000D000220F0A94EAF7209529232BBB089521E0EB
:1000E00030E0082E01C0220F0A94EAF7922B9BBB46
:1000F000089580918700811101C0CCDF80E0D9DFB5
:1001000081E0D7CF12BE10927F0010927E0085E072
:1001100083BF0895DA9AF6CFDA9813BE0895109245
:100120007F0010927E009093830080938200F2CF34
:100130008AE090E0F4CF82E090E0F1CF662339F0DE
:1001400020918400309185002817390729F0909379
:1001500085008093840060E0E0918400F091850048
:10016000E60FF11D8081813009F4E5CF823009F47A
:10017000DFCF08951F920F920FB60F9211242F9385
:100180003F934F935F936F937F938F939F93AF931F
:10019000BF93EF93FF93F89480917E0090917F003E
:1001A000019690937F0080937E0020918200309191
:1001B00083002817390708F4AFDF7894FF91EF9197
:1001C000BF91AF919F918F917F916F915F914F916F
:1001D0003F912F910F900FBE0F901F9018951F9277
:1001E0000F920FB60F9211242F933F934F935F936B
:1001F0006F937F938F939F93AF93BF93EF93FF93EF
:10020000F89441DF892B81F12DDF892B39F0809122
:1002100081008A3050F01092810007C02BDF892BBB
:10022000B1F31BDF892B99F71FC063DF16DF892B22
:1002300029F06091810084E790E00FC013DF892BE3
:1002400029F0609181008AE690E007C013DF892BD6
:1002500029F46091810080E690E070DF8091810058
:100260008F5F8093810003C01EDF1092810078941D
:10027000FF91EF91BF91AF919F918F917F916F917E
:100280005F914F913F912F910F900FBE0F901F9054
:100290001895F89487E08ABB17BA109287001092DD
:1002A0007F0010927E0082E090E090938300809324
:1002B000820083EC86BF12BE22E020BF13BE13BCB7
:1002C00029BF1092810084E89EE19BBD8ABD1DBCC0
:1002D0001CBC1FBC8DE08EBD12BC13BC2CB9789425
:0A02E0000895D7DFFFCFF894FFCF99
:1002EA0002010101000000000000020102000000FA
:0E02FA000000000001010101010101010101EC
:00000001FF
